1CREATION DATE: 20230814CREATION TIME:   1601DEPOSIT DATE(S) FROM:   20230810 TO DATE :  20230810                                           
2AT014620230810850040000001DEPOSIT          26                     000000013500   000000000000 000000013500 0003002400986I002425669         
2AT014620230810850040000002FUNDS TRANSFER CR TT HSIMPSON           000000525000   000000000000 000000525000 0003002400986I002425669         
2AT014620230810850040000003MISC PAYMENT ABC1234567                 000000951250   000000000000 000000951250 0003002400986I002425669         
2AT014620230810850040000004FUNDS TRANSFER CR TT INTERBLOCK C       000002125000   000000000000 000002125000 0003002400986I002425669         
2AT014620230810850201600001                                        000000119000   000000000000 000000119000 0010002400989I002425836         
2AT014620230810850201600001FEDERAL PAYMENT CANADA                  000000119000   000000000000 000000119000 0010002400989I002425836         
70000060000003733750                                                                                                                        
